{"contracts/TestHook.sol":{"TestHook":{"abi":[{"anonymous":false,"inputs":[{"indexed":false,"internalType":"address","name":"sender","type":"address"},{"indexed":false,"internalType":"bool","name":"success","type":"bool"},{"indexed":false,"internalType":"bytes","name":"preCheckData","type":"bytes"}],"name":"PostCheckCalled","type":"event"},{"anonymous":false,"inputs":[{"indexed":false,"internalType":"address","name":"sender","type":"address"},{"indexed":false,"internalType":"uint256","name":"executionType","type":"uint256"},{"indexed":false,"internalType":"bytes","name":"executionMeta","type":"bytes"}],"name":"PreCheckCalled","type":"event"},{"anonymous":false,"inputs":[{"indexed":false,"internalType":"address","name":"sender","type":"address"},{"indexed":false,"internalType":"uint256","name":"executionType","type":"uint256"},{"indexed":false,"internalType":"bytes","name":"executionMeta","type":"bytes"}],"name":"PreCheckRootAccessCalled","type":"event"},{"inputs":[{"internalType":"contract ISafe","name":"safe","type":"address"},{"internalType":"bool","name":"success","type":"bool"},{"internalType":"bytes","name":"preCheckData","type":"bytes"}],"name":"postCheck","outputs":[],"stateMutability":"nonpayable","type":"function"},{"inputs":[{"internalType":"contract ISafe","name":"safe","type":"address"},{"components":[{"components":[{"internalType":"address payable","name":"to","type":"address"},{"internalType":"uint256","name":"value","type":"uint256"},{"internalType":"bytes","name":"data","type":"bytes"}],"internalType":"struct SafeProtocolAction[]","name":"actions","type":"tuple[]"},{"internalType":"uint256","name":"nonce","type":"uint256"},{"internalType":"bytes32","name":"metaHash","type":"bytes32"}],"internalType":"struct SafeTransaction","name":"tx","type":"tuple"},{"internalType":"uint256","name":"executionType","type":"uint256"},{"internalType":"bytes","name":"executionMeta","type":"bytes"}],"name":"preCheck","outputs":[{"internalType":"bytes","name":"preCheckData","type":"bytes"}],"stateMutability":"nonpayable","type":"function"},{"inputs":[{"internalType":"contract ISafe","name":"safe","type":"address"},{"components":[{"components":[{"internalType":"address payable","name":"to","type":"address"},{"internalType":"uint256","name":"value","type":"uint256"},{"internalType":"bytes","name":"data","type":"bytes"}],"internalType":"struct SafeProtocolAction","name":"action","type":"tuple"},{"internalType":"uint256","name":"nonce","type":"uint256"},{"internalType":"bytes32","name":"metaHash","type":"bytes32"}],"internalType":"struct SafeRootAccess","name":"rootAccess","type":"tuple"},{"internalType":"uint256","name":"executionType","type":"uint256"},{"internalType":"bytes","name":"executionMeta","type":"bytes"}],"name":"preCheckRootAccess","outputs":[{"internalType":"bytes","name":"preCheckData","type":"bytes"}],"stateMutability":"nonpayable","type":"function"},{"inputs":[{"internalType":"bytes4","name":"interfaceId","type":"bytes4"}],"name":"supportsInterface","outputs":[{"internalType":"bool","name":"","type":"bool"}],"stateMutability":"view","type":"function"}],"devdoc":{"kind":"dev","methods":{"postCheck(address,bool,bytes)":{"details":"Add custom logic in this function to validate the post-state after the transaction is executed.","params":{"preCheckData":"Arbitrary length bytes that was returned by during pre-check of the transaction.","safe":"ISafe","success":"bool"}},"preCheck(address,((address,uint256,bytes)[],uint256,bytes32),uint256,bytes)":{"details":"Add custom logic in this function to validate the pre-state and contents of transaction for non-root access.","params":{"executionMeta":"Arbitrary length of bytes","executionType":"uint256","safe":"A Safe instance","tx":"A struct of type SafeTransaction that contains the details of the transaction."},"returns":{"preCheckData":"bytes"}},"preCheckRootAccess(address,((address,uint256,bytes),uint256,bytes32),uint256,bytes)":{"details":"Add custom logic in this function to validate the pre-state and contents of transaction for root access.","params":{"executionMeta":"bytes","executionType":"uint256","rootAccess":"DataTypes.SafeRootAccess","safe":"A Safe instance"},"returns":{"preCheckData":"bytes"}},"supportsInterface(bytes4)":{"details":"Returns true if this contract implements the interface defined by `interfaceId`. See the corresponding https://eips.ethereum.org/EIPS/eip-165#how-interfaces-are-identified[EIP section] to learn more about how these ids are created. This function call must use less than 30 000 gas."}},"version":1},"evm":{"bytecode":{"linkReferences":{},"object":"608060405234801561001057600080fd5b50610798806100206000396000f3fe608060405234801561001057600080fd5b506004361061004c5760003560e01c806301ffc9a714610051578063176ae7b7146100815780637359b742146100b1578063f44d4ca3146100e1575b600080fd5b61006b6004803603810190610066919061023d565b6100fd565b6040516100789190610285565b60405180910390f35b61009b600480360381019061009691906103cf565b610108565b6040516100a89190610503565b60405180910390f35b6100cb60048036038101906100c69190610544565b610150565b6040516100d89190610503565b60405180910390f35b6100fb60048036038101906100f69190610614565b610198565b005b600060019050919050565b60607fba141d1e6792303b9e9126885cd31f5e91dc6b15836c7214f821b163a069cbf43385858560405161013f94939291906106e2565b60405180910390a195945050505050565b60607f3256a4f1a2ba63603d140a241b17453003a8c7458eb8264328d35f440d5d392a3385858560405161018794939291906106e2565b60405180910390a195945050505050565b7f56fe939208d9884dede3b0a4f4168be3c4f445b3280bda9682397aaac12e06b2338484846040516101cd9493929190610722565b60405180910390a150505050565b600080fd5b600080fd5b60007fffffffff0000000000000000000000000000000000000000000000000000000082169050919050565b61021a816101e5565b811461022557600080fd5b50565b60008135905061023781610211565b92915050565b600060208284031215610253576102526101db565b5b600061026184828501610228565b91505092915050565b60008115159050919050565b61027f8161026a565b82525050565b600060208201905061029a6000830184610276565b92915050565b600073ffffffffffffffffffffffffffffffffffffffff82169050919050565b60006102cb826102a0565b9050919050565b60006102dd826102c0565b9050919050565b6102ed816102d2565b81146102f857600080fd5b50565b60008135905061030a816102e4565b92915050565b600080fd5b60006060828403121561032b5761032a610310565b5b81905092915050565b6000819050919050565b61034781610334565b811461035257600080fd5b50565b6000813590506103648161033e565b92915050565b600080fd5b600080fd5b600080fd5b60008083601f84011261038f5761038e61036a565b5b8235905067ffffffffffffffff8111156103ac576103ab61036f565b5b6020830191508360018202830111156103c8576103c7610374565b5b9250929050565b6000806000806000608086880312156103eb576103ea6101db565b5b60006103f9888289016102fb565b955050602086013567ffffffffffffffff81111561041a576104196101e0565b5b61042688828901610315565b945050604061043788828901610355565b935050606086013567ffffffffffffffff811115610458576104576101e0565b5b61046488828901610379565b92509250509295509295909350565b600081519050919050565b600082825260208201905092915050565b60005b838110156104ad578082015181840152602081019050610492565b60008484015250505050565b6000601f19601f8301169050919050565b60006104d582610473565b6104df818561047e565b93506104ef81856020860161048f565b6104f8816104b9565b840191505092915050565b6000602082019050818103600083015261051d81846104ca565b905092915050565b60006060828403121561053b5761053a610310565b5b81905092915050565b6000806000806000608086880312156105605761055f6101db565b5b600061056e888289016102fb565b955050602086013567ffffffffffffffff81111561058f5761058e6101e0565b5b61059b88828901610525565b94505060406105ac88828901610355565b935050606086013567ffffffffffffffff8111156105cd576105cc6101e0565b5b6105d988828901610379565b92509250509295509295909350565b6105f18161026a565b81146105fc57600080fd5b50565b60008135905061060e816105e8565b92915050565b6000806000806060858703121561062e5761062d6101db565b5b600061063c878288016102fb565b945050602061064d878288016105ff565b935050604085013567ffffffffffffffff81111561066e5761066d6101e0565b5b61067a87828801610379565b925092505092959194509250565b610691816102c0565b82525050565b6106a081610334565b82525050565b82818337600083830152505050565b60006106c1838561047e565b93506106ce8385846106a6565b6106d7836104b9565b840190509392505050565b60006060820190506106f76000830187610688565b6107046020830186610697565b81810360408301526107178184866106b5565b905095945050505050565b60006060820190506107376000830187610688565b6107446020830186610276565b81810360408301526107578184866106b5565b90509594505050505056fea2646970667358221220927463f30623ab2e620ab1f9acdc8c5ac39d1f2a51e65a1f01e66681bc6a0f4764736f6c63430008120033","opcodes":"PUSH1 0x80 PUSH1 0x40 MSTORE CALLVALUE DUP1 ISZERO PUSH2 0x10 JUMPI PUSH1 0x0 DUP1 REVERT JUMPDEST POP PUSH2 0x798 DUP1 PUSH2 0x20 PUSH1 0x0 CODECOPY PUSH1 0x0 RETURN INVALID PUSH1 0x80 PUSH1 0x40 MSTORE CALLVALUE DUP1 ISZERO PUSH2 0x10 JUMPI PUSH1 0x0 DUP1 REVERT JUMPDEST POP PUSH1 0x4 CALLDATASIZE LT PUSH2 0x4C JUMPI PUSH1 0x0 CALLDATALOAD PUSH1 0xE0 SHR DUP1 PUSH4 0x1FFC9A7 EQ PUSH2 0x51 JUMPI DUP1 PUSH4 0x176AE7B7 EQ PUSH2 0x81 JUMPI DUP1 PUSH4 0x7359B742 EQ PUSH2 0xB1 JUMPI DUP1 PUSH4 0xF44D4CA3 EQ PUSH2 0xE1 JUMPI JUMPDEST PUSH1 0x0 DUP1 REVERT JUMPDEST PUSH2 0x6B PUSH1 0x4 DUP1 CALLDATASIZE SUB DUP2 ADD SWAP1 PUSH2 0x66 SWAP2 SWAP1 PUSH2 0x23D JUMP JUMPDEST PUSH2 0xFD JUMP JUMPDEST PUSH1 0x40 MLOAD PUSH2 0x78 SWAP2 SWAP1 PUSH2 0x285 JUMP JUMPDEST PUSH1 0x40 MLOAD DUP1 SWAP2 SUB SWAP1 RETURN JUMPDEST PUSH2 0x9B PUSH1 0x4 DUP1 CALLDATASIZE SUB DUP2 ADD SWAP1 PUSH2 0x96 SWAP2 SWAP1 PUSH2 0x3CF JUMP JUMPDEST PUSH2 0x108 JUMP JUMPDEST PUSH1 0x40 MLOAD PUSH2 0xA8 SWAP2 SWAP1 PUSH2 0x503 JUMP JUMPDEST PUSH1 0x40 MLOAD DUP1 SWAP2 SUB SWAP1 RETURN JUMPDEST PUSH2 0xCB PUSH1 0x4 DUP1 CALLDATASIZE SUB DUP2 ADD SWAP1 PUSH2 0xC6 SWAP2 SWAP1 PUSH2 0x544 JUMP JUMPDEST PUSH2 0x150 JUMP JUMPDEST PUSH1 0x40 MLOAD PUSH2 0xD8 SWAP2 SWAP1 PUSH2 0x503 JUMP JUMPDEST PUSH1 0x40 MLOAD DUP1 SWAP2 SUB SWAP1 RETURN JUMPDEST PUSH2 0xFB PUSH1 0x4 DUP1 CALLDATASIZE SUB DUP2 ADD SWAP1 PUSH2 0xF6 SWAP2 SWAP1 PUSH2 0x614 JUMP JUMPDEST PUSH2 0x198 JUMP JUMPDEST STOP JUMPDEST PUSH1 0x0 PUSH1 0x1 SWAP1 POP SWAP2 SWAP1 POP JUMP JUMPDEST PUSH1 0x60 PUSH32 0xBA141D1E6792303B9E9126885CD31F5E91DC6B15836C7214F821B163A069CBF4 CALLER DUP6 DUP6 DUP6 PUSH1 0x40 MLOAD PUSH2 0x13F SWAP5 SWAP4 SWAP3 SWAP2 SWAP1 PUSH2 0x6E2 JUMP JUMPDEST PUSH1 0x40 MLOAD DUP1 SWAP2 SUB SWAP1 LOG1 SWAP6 SWAP5 POP POP POP POP POP JUMP JUMPDEST PUSH1 0x60 PUSH32 0x3256A4F1A2BA63603D140A241B17453003A8C7458EB8264328D35F440D5D392A CALLER DUP6 DUP6 DUP6 PUSH1 0x40 MLOAD PUSH2 0x187 SWAP5 SWAP4 SWAP3 SWAP2 SWAP1 PUSH2 0x6E2 JUMP JUMPDEST PUSH1 0x40 MLOAD DUP1 SWAP2 SUB SWAP1 LOG1 SWAP6 SWAP5 POP POP POP POP POP JUMP JUMPDEST PUSH32 0x56FE939208D9884DEDE3B0A4F4168BE3C4F445B3280BDA9682397AAAC12E06B2 CALLER DUP5 DUP5 DUP5 PUSH1 0x40 MLOAD PUSH2 0x1CD SWAP5 SWAP4 SWAP3 SWAP2 SWAP1 PUSH2 0x722 JUMP JUMPDEST PUSH1 0x40 MLOAD DUP1 SWAP2 SUB SWAP1 LOG1 POP POP POP POP JUMP JUMPDEST PUSH1 0x0 DUP1 REVERT JUMPDEST PUSH1 0x0 DUP1 REVERT JUMPDEST PUSH1 0x0 PUSH32 0xFFFFFFFF00000000000000000000000000000000000000000000000000000000 DUP3 AND SWAP1 POP SWAP2 SWAP1 POP JUMP JUMPDEST PUSH2 0x21A DUP2 PUSH2 0x1E5 JUMP JUMPDEST DUP2 EQ PUSH2 0x225 JUMPI PUSH1 0x0 DUP1 REVERT JUMPDEST POP JUMP JUMPDEST PUSH1 0x0 DUP2 CALLDATALOAD SWAP1 POP PUSH2 0x237 DUP2 PUSH2 0x211 JUMP JUMPDEST SWAP3 SWAP2 POP POP JUMP JUMPDEST PUSH1 0x0 PUSH1 0x20 DUP3 DUP5 SUB SLT ISZERO PUSH2 0x253 JUMPI PUSH2 0x252 PUSH2 0x1DB JUMP JUMPDEST JUMPDEST PUSH1 0x0 PUSH2 0x261 DUP5 DUP3 DUP6 ADD PUSH2 0x228 JUMP JUMPDEST SWAP2 POP POP SWAP3 SWAP2 POP POP JUMP JUMPDEST PUSH1 0x0 DUP2 ISZERO ISZERO SWAP1 POP SWAP2 SWAP1 POP JUMP JUMPDEST PUSH2 0x27F DUP2 PUSH2 0x26A JUMP JUMPDEST DUP3 MSTORE POP POP JUMP JUMPDEST PUSH1 0x0 PUSH1 0x20 DUP3 ADD SWAP1 POP PUSH2 0x29A PUSH1 0x0 DUP4 ADD DUP5 PUSH2 0x276 JUMP JUMPDEST SWAP3 SWAP2 POP POP JUMP JUMPDEST PUSH1 0x0 PUSH20 0xFFFFFFFFFFFFFFFFFFFFFFFFFFFFFFFFFFFFFFFF DUP3 AND SWAP1 POP SWAP2 SWAP1 POP JUMP JUMPDEST PUSH1 0x0 PUSH2 0x2CB DUP3 PUSH2 0x2A0 JUMP JUMPDEST SWAP1 POP SWAP2 SWAP1 POP JUMP JUMPDEST PUSH1 0x0 PUSH2 0x2DD DUP3 PUSH2 0x2C0 JUMP JUMPDEST SWAP1 POP SWAP2 SWAP1 POP JUMP JUMPDEST PUSH2 0x2ED DUP2 PUSH2 0x2D2 JUMP JUMPDEST DUP2 EQ PUSH2 0x2F8 JUMPI PUSH1 0x0 DUP1 REVERT JUMPDEST POP JUMP JUMPDEST PUSH1 0x0 DUP2 CALLDATALOAD SWAP1 POP PUSH2 0x30A DUP2 PUSH2 0x2E4 JUMP JUMPDEST SWAP3 SWAP2 POP POP JUMP JUMPDEST PUSH1 0x0 DUP1 REVERT JUMPDEST PUSH1 0x0 PUSH1 0x60 DUP3 DUP5 SUB SLT ISZERO PUSH2 0x32B JUMPI PUSH2 0x32A PUSH2 0x310 JUMP JUMPDEST JUMPDEST DUP2 SWAP1 POP SWAP3 SWAP2 POP POP JUMP JUMPDEST PUSH1 0x0 DUP2 SWAP1 POP SWAP2 SWAP1 POP JUMP JUMPDEST PUSH2 0x347 DUP2 PUSH2 0x334 JUMP JUMPDEST DUP2 EQ PUSH2 0x352 JUMPI PUSH1 0x0 DUP1 REVERT JUMPDEST POP JUMP JUMPDEST PUSH1 0x0 DUP2 CALLDATALOAD SWAP1 POP PUSH2 0x364 DUP2 PUSH2 0x33E JUMP JUMPDEST SWAP3 SWAP2 POP POP JUMP JUMPDEST PUSH1 0x0 DUP1 REVERT JUMPDEST PUSH1 0x0 DUP1 REVERT JUMPDEST PUSH1 0x0 DUP1 REVERT JUMPDEST PUSH1 0x0 DUP1 DUP4 PUSH1 0x1F DUP5 ADD SLT PUSH2 0x38F JUMPI PUSH2 0x38E PUSH2 0x36A JUMP JUMPDEST JUMPDEST DUP3 CALLDATALOAD SWAP1 POP PUSH8 0xFFFFFFFFFFFFFFFF DUP2 GT ISZERO PUSH2 0x3AC JUMPI PUSH2 0x3AB PUSH2 0x36F JUMP JUMPDEST JUMPDEST PUSH1 0x20 DUP4 ADD SWAP2 POP DUP4 PUSH1 0x1 DUP3 MUL DUP4 ADD GT ISZERO PUSH2 0x3C8 JUMPI PUSH2 0x3C7 PUSH2 0x374 JUMP JUMPDEST JUMPDEST SWAP3 POP SWAP3 SWAP1 POP JUMP JUMPDEST PUSH1 0x0 DUP1 PUSH1 0x0 DUP1 PUSH1 0x0 PUSH1 0x80 DUP7 DUP9 SUB SLT ISZERO PUSH2 0x3EB JUMPI PUSH2 0x3EA PUSH2 0x1DB JUMP JUMPDEST JUMPDEST PUSH1 0x0 PUSH2 0x3F9 DUP9 DUP3 DUP10 ADD PUSH2 0x2FB JUMP JUMPDEST SWAP6 POP POP PUSH1 0x20 DUP7 ADD CALLDATALOAD PUSH8 0xFFFFFFFFFFFFFFFF DUP2 GT ISZERO PUSH2 0x41A JUMPI PUSH2 0x419 PUSH2 0x1E0 JUMP JUMPDEST JUMPDEST PUSH2 0x426 DUP9 DUP3 DUP10 ADD PUSH2 0x315 JUMP JUMPDEST SWAP5 POP POP PUSH1 0x40 PUSH2 0x437 DUP9 DUP3 DUP10 ADD PUSH2 0x355 JUMP JUMPDEST SWAP4 POP POP PUSH1 0x60 DUP7 ADD CALLDATALOAD PUSH8 0xFFFFFFFFFFFFFFFF DUP2 GT ISZERO PUSH2 0x458 JUMPI PUSH2 0x457 PUSH2 0x1E0 JUMP JUMPDEST JUMPDEST PUSH2 0x464 DUP9 DUP3 DUP10 ADD PUSH2 0x379 JUMP JUMPDEST SWAP3 POP SWAP3 POP POP SWAP3 SWAP6 POP SWAP3 SWAP6 SWAP1 SWAP4 POP JUMP JUMPDEST PUSH1 0x0 DUP2 MLOAD SWAP1 POP SWAP2 SWAP1 POP JUMP JUMPDEST PUSH1 0x0 DUP3 DUP3 MSTORE PUSH1 0x20 DUP3 ADD SWAP1 POP SWAP3 SWAP2 POP POP JUMP JUMPDEST PUSH1 0x0 JUMPDEST DUP4 DUP2 LT ISZERO PUSH2 0x4AD JUMPI DUP1 DUP3 ADD MLOAD DUP2 DUP5 ADD MSTORE PUSH1 0x20 DUP2 ADD SWAP1 POP PUSH2 0x492 JUMP JUMPDEST PUSH1 0x0 DUP5 DUP5 ADD MSTORE POP POP POP POP JUMP JUMPDEST PUSH1 0x0 PUSH1 0x1F NOT PUSH1 0x1F DUP4 ADD AND SWAP1 POP SWAP2 SWAP1 POP JUMP JUMPDEST PUSH1 0x0 PUSH2 0x4D5 DUP3 PUSH2 0x473 JUMP JUMPDEST PUSH2 0x4DF DUP2 DUP6 PUSH2 0x47E JUMP JUMPDEST SWAP4 POP PUSH2 0x4EF DUP2 DUP6 PUSH1 0x20 DUP7 ADD PUSH2 0x48F JUMP JUMPDEST PUSH2 0x4F8 DUP2 PUSH2 0x4B9 JUMP JUMPDEST DUP5 ADD SWAP2 POP POP SWAP3 SWAP2 POP POP JUMP JUMPDEST PUSH1 0x0 PUSH1 0x20 DUP3 ADD SWAP1 POP DUP2 DUP2 SUB PUSH1 0x0 DUP4 ADD MSTORE PUSH2 0x51D DUP2 DUP5 PUSH2 0x4CA JUMP JUMPDEST SWAP1 POP SWAP3 SWAP2 POP POP JUMP JUMPDEST PUSH1 0x0 PUSH1 0x60 DUP3 DUP5 SUB SLT ISZERO PUSH2 0x53B JUMPI PUSH2 0x53A PUSH2 0x310 JUMP JUMPDEST JUMPDEST DUP2 SWAP1 POP SWAP3 SWAP2 POP POP JUMP JUMPDEST PUSH1 0x0 DUP1 PUSH1 0x0 DUP1 PUSH1 0x0 PUSH1 0x80 DUP7 DUP9 SUB SLT ISZERO PUSH2 0x560 JUMPI PUSH2 0x55F PUSH2 0x1DB JUMP JUMPDEST JUMPDEST PUSH1 0x0 PUSH2 0x56E DUP9 DUP3 DUP10 ADD PUSH2 0x2FB JUMP JUMPDEST SWAP6 POP POP PUSH1 0x20 DUP7 ADD CALLDATALOAD PUSH8 0xFFFFFFFFFFFFFFFF DUP2 GT ISZERO PUSH2 0x58F JUMPI PUSH2 0x58E PUSH2 0x1E0 JUMP JUMPDEST JUMPDEST PUSH2 0x59B DUP9 DUP3 DUP10 ADD PUSH2 0x525 JUMP JUMPDEST SWAP5 POP POP PUSH1 0x40 PUSH2 0x5AC DUP9 DUP3 DUP10 ADD PUSH2 0x355 JUMP JUMPDEST SWAP4 POP POP PUSH1 0x60 DUP7 ADD CALLDATALOAD PUSH8 0xFFFFFFFFFFFFFFFF DUP2 GT ISZERO PUSH2 0x5CD JUMPI PUSH2 0x5CC PUSH2 0x1E0 JUMP JUMPDEST JUMPDEST PUSH2 0x5D9 DUP9 DUP3 DUP10 ADD PUSH2 0x379 JUMP JUMPDEST SWAP3 POP SWAP3 POP POP SWAP3 SWAP6 POP SWAP3 SWAP6 SWAP1 SWAP4 POP JUMP JUMPDEST PUSH2 0x5F1 DUP2 PUSH2 0x26A JUMP JUMPDEST DUP2 EQ PUSH2 0x5FC JUMPI PUSH1 0x0 DUP1 REVERT JUMPDEST POP JUMP JUMPDEST PUSH1 0x0 DUP2 CALLDATALOAD SWAP1 POP PUSH2 0x60E DUP2 PUSH2 0x5E8 JUMP JUMPDEST SWAP3 SWAP2 POP POP JUMP JUMPDEST PUSH1 0x0 DUP1 PUSH1 0x0 DUP1 PUSH1 0x60 DUP6 DUP8 SUB SLT ISZERO PUSH2 0x62E JUMPI PUSH2 0x62D PUSH2 0x1DB JUMP JUMPDEST JUMPDEST PUSH1 0x0 PUSH2 0x63C DUP8 DUP3 DUP9 ADD PUSH2 0x2FB JUMP JUMPDEST SWAP5 POP POP PUSH1 0x20 PUSH2 0x64D DUP8 DUP3 DUP9 ADD PUSH2 0x5FF JUMP JUMPDEST SWAP4 POP POP PUSH1 0x40 DUP6 ADD CALLDATALOAD PUSH8 0xFFFFFFFFFFFFFFFF DUP2 GT ISZERO PUSH2 0x66E JUMPI PUSH2 0x66D PUSH2 0x1E0 JUMP JUMPDEST JUMPDEST PUSH2 0x67A DUP8 DUP3 DUP9 ADD PUSH2 0x379 JUMP JUMPDEST SWAP3 POP SWAP3 POP POP SWAP3 SWAP6 SWAP2 SWAP5 POP SWAP3 POP JUMP JUMPDEST PUSH2 0x691 DUP2 PUSH2 0x2C0 JUMP JUMPDEST DUP3 MSTORE POP POP JUMP JUMPDEST PUSH2 0x6A0 DUP2 PUSH2 0x334 JUMP JUMPDEST DUP3 MSTORE POP POP JUMP JUMPDEST DUP3 DUP2 DUP4 CALLDATACOPY PUSH1 0x0 DUP4 DUP4 ADD MSTORE POP POP POP JUMP JUMPDEST PUSH1 0x0 PUSH2 0x6C1 DUP4 DUP6 PUSH2 0x47E JUMP JUMPDEST SWAP4 POP PUSH2 0x6CE DUP4 DUP6 DUP5 PUSH2 0x6A6 JUMP JUMPDEST PUSH2 0x6D7 DUP4 PUSH2 0x4B9 JUMP JUMPDEST DUP5 ADD SWAP1 POP SWAP4 SWAP3 POP POP POP JUMP JUMPDEST PUSH1 0x0 PUSH1 0x60 DUP3 ADD SWAP1 POP PUSH2 0x6F7 PUSH1 0x0 DUP4 ADD DUP8 PUSH2 0x688 JUMP JUMPDEST PUSH2 0x704 PUSH1 0x20 DUP4 ADD DUP7 PUSH2 0x697 JUMP JUMPDEST DUP2 DUP2 SUB PUSH1 0x40 DUP4 ADD MSTORE PUSH2 0x717 DUP2 DUP5 DUP7 PUSH2 0x6B5 JUMP JUMPDEST SWAP1 POP SWAP6 SWAP5 POP POP POP POP POP JUMP JUMPDEST PUSH1 0x0 PUSH1 0x60 DUP3 ADD SWAP1 POP PUSH2 0x737 PUSH1 0x0 DUP4 ADD DUP8 PUSH2 0x688 JUMP JUMPDEST PUSH2 0x744 PUSH1 0x20 DUP4 ADD DUP7 PUSH2 0x276 JUMP JUMPDEST DUP2 DUP2 SUB PUSH1 0x40 DUP4 ADD MSTORE PUSH2 0x757 DUP2 DUP5 DUP7 PUSH2 0x6B5 JUMP JUMPDEST SWAP1 POP SWAP6 SWAP5 POP POP POP POP POP JUMP INVALID LOG2 PUSH5 0x6970667358 0x22 SLT KECCAK256 SWAP3 PUSH21 0x63F30623AB2E620AB1F9ACDC8C5AC39D1F2A51E65A 0x1F ADD 0xE6 PUSH7 0x81BC6A0F476473 PUSH16 0x6C634300081200330000000000000000 "},"gasEstimates":{"creation":{"codeDepositCost":"388800","executionCost":"424","totalCost":"389224"},"external":{"postCheck(address,bool,bytes)":"infinite","preCheck(address,((address,uint256,bytes)[],uint256,bytes32),uint256,bytes)":"infinite","preCheckRootAccess(address,((address,uint256,bytes),uint256,bytes32),uint256,bytes)":"infinite","supportsInterface(bytes4)":"592"}},"methodIdentifiers":{"postCheck(address,bool,bytes)":"f44d4ca3","preCheck(address,((address,uint256,bytes)[],uint256,bytes32),uint256,bytes)":"176ae7b7","preCheckRootAccess(address,((address,uint256,bytes),uint256,bytes32),uint256,bytes)":"7359b742","supportsInterface(bytes4)":"01ffc9a7"}},"storageLayout":{"storage":[],"types":null},"userdoc":{"kind":"user","methods":{"postCheck(address,bool,bytes)":{"notice":"A function that will be called by a safe after the execution of a transaction if the hooks are enabled. Hooks should revert if the post state of after the transaction is not as expected."},"preCheck(address,((address,uint256,bytes)[],uint256,bytes32),uint256,bytes)":{"notice":"A function that will be called by a Safe before the execution of a transaction if the hooks are enabled"},"preCheckRootAccess(address,((address,uint256,bytes),uint256,bytes32),uint256,bytes)":{"notice":"A function that will be called by a safe before the execution of a transaction if the hooks are enabled and         transaction requies tool access."}},"version":1}}}}