{
  "abi": [
    {
      "anonymous": false,
      "inputs": [],
      "name": "SomethingHappened",
      "type": "event"
    },
    {
      "inputs": [],
      "name": "doSomething",
      "outputs": [],
      "stateMutability": "nonpayable",
      "type": "function"
    },
    {
      "inputs": [],
      "name": "metadataProvider",
      "outputs": [
        {
          "internalType": "uint256",
          "name": "providerType",
          "type": "uint256"
        },
        {
          "internalType": "bytes",
          "name": "location",
          "type": "bytes"
        }
      ],
      "stateMutability": "view",
      "type": "function"
    },
    {
      "inputs": [],
      "name": "name",
      "outputs": [
        {
          "internalType": "string",
          "name": "",
          "type": "string"
        }
      ],
      "stateMutability": "view",
      "type": "function"
    },
    {
      "inputs": [],
      "name": "requiresRootAccess",
      "outputs": [
        {
          "internalType": "bool",
          "name": "",
          "type": "bool"
        }
      ],
      "stateMutability": "view",
      "type": "function"
    },
    {
      "inputs": [],
      "name": "version",
      "outputs": [
        {
          "internalType": "string",
          "name": "",
          "type": "string"
        }
      ],
      "stateMutability": "view",
      "type": "function"
    }
  ],
  "bytecode": {
    "object": "0x60c0604052600a6080908152692a32b9ba28363ab3b4b760b11b60a052600090610029908261013e565b506040805180820190915260058152640312e302e360dc1b6020820152600190610053908261013e565b50600160025560405180604001604052806002815260200161060f60f31b81525060039081610082919061013e565b506004805460ff1916905534801561009957600080fd5b506101fd565b634e487b7160e01b600052604160045260246000fd5b600181811c908216806100c957607f821691505b6020821081036100e957634e487b7160e01b600052602260045260246000fd5b50919050565b601f82111561013957600081815260208120601f850160051c810160208610156101165750805b601f850160051c820191505b8181101561013557828155600101610122565b5050505b505050565b81516001600160401b038111156101575761015761009f565b61016b8161016584546100b5565b846100ef565b602080601f8311600181146101a057600084156101885750858301515b600019600386901b1c1916600185901b178555610135565b600085815260208120601f198616915b828110156101cf578886015182559484019460019091019084016101b0565b50858210156101ed5787850151600019600388901b60f8161c191681555b5050505050600190811b01905550565b6103128061020c6000396000f3fe608060405234801561001057600080fd5b50600436106100575760003560e01c806306fdde031461005c57806354fd4d501461007a5780638269267914610082578063be193d271461008c578063d3d72d2a146100a2575b600080fd5b6100646100b8565b6040516100719190610267565b60405180910390f35b61006461014a565b61008a610159565b005b60045460ff166040519015158152602001610071565b6100aa610184565b604051610071929190610281565b6060600080546100c7906102a2565b80601f01602080910402602001604051908101604052809291908181526020018280546100f3906102a2565b80156101405780601f1061011557610100808354040283529160200191610140565b820191906000526020600020905b81548152906001019060200180831161012357829003601f168201915b5050505050905090565b6060600180546100c7906102a2565b6040517fb132fe07a9054c2f276667fc4598a5cbc713b3021f49adbce7be0e809694423490600090a1565b600060606002546003808054610199906102a2565b80601f01602080910402602001604051908101604052809291908181526020018280546101c5906102a2565b80156102125780601f106101e757610100808354040283529160200191610212565b820191906000526020600020905b8154815290600101906020018083116101f557829003601f168201915b50505050509050915091509091565b6000815180845260005b818110156102475760208185018101518683018201520161022b565b506000602082860101526020601f19601f83011685010191505092915050565b60208152600061027a6020830184610221565b9392505050565b82815260406020820152600061029a6040830184610221565b949350505050565b600181811c908216806102b657607f821691505b6020821081036102d657634e487b7160e01b600052602260045260246000fd5b5091905056fea2646970667358221220ea04f0f2947b501c9378082a787ac8d9fec64c26d5905f514b05a0893c0c55c864736f6c63430008140033",
    "linkReferences": {}
  },
  "methodIdentifiers": {
    "doSomething()": "82692679",
    "metadataProvider()": "d3d72d2a",
    "name()": "06fdde03",
    "requiresRootAccess()": "be193d27",
    "version()": "54fd4d50"
  },
  "id": 8
}