{
  "abi": [
    {
      "anonymous": false,
      "inputs": [
        {
          "indexed": false,
          "internalType": "address",
          "name": "sender",
          "type": "address"
        },
        {
          "indexed": false,
          "internalType": "bool",
          "name": "success",
          "type": "bool"
        },
        {
          "indexed": false,
          "internalType": "bytes",
          "name": "preCheckData",
          "type": "bytes"
        }
      ],
      "name": "PostCheckCalled",
      "type": "event"
    },
    {
      "anonymous": false,
      "inputs": [
        {
          "indexed": false,
          "internalType": "address",
          "name": "sender",
          "type": "address"
        },
        {
          "indexed": false,
          "internalType": "uint256",
          "name": "executionType",
          "type": "uint256"
        },
        {
          "indexed": false,
          "internalType": "bytes",
          "name": "executionMeta",
          "type": "bytes"
        }
      ],
      "name": "PreCheckCalled",
      "type": "event"
    },
    {
      "anonymous": false,
      "inputs": [
        {
          "indexed": false,
          "internalType": "address",
          "name": "sender",
          "type": "address"
        },
        {
          "indexed": false,
          "internalType": "uint256",
          "name": "executionType",
          "type": "uint256"
        },
        {
          "indexed": false,
          "internalType": "bytes",
          "name": "executionMeta",
          "type": "bytes"
        }
      ],
      "name": "PreCheckRootAccessCalled",
      "type": "event"
    },
    {
      "inputs": [
        {
          "internalType": "contract ISafe",
          "name": "safe",
          "type": "address"
        },
        {
          "internalType": "bool",
          "name": "success",
          "type": "bool"
        },
        {
          "internalType": "bytes",
          "name": "preCheckData",
          "type": "bytes"
        }
      ],
      "name": "postCheck",
      "outputs": [],
      "stateMutability": "nonpayable",
      "type": "function"
    },
    {
      "inputs": [
        {
          "internalType": "contract ISafe",
          "name": "safe",
          "type": "address"
        },
        {
          "components": [
            {
              "components": [
                {
                  "internalType": "address payable",
                  "name": "to",
                  "type": "address"
                },
                {
                  "internalType": "uint256",
                  "name": "value",
                  "type": "uint256"
                },
                {
                  "internalType": "bytes",
                  "name": "data",
                  "type": "bytes"
                }
              ],
              "internalType": "struct SafeProtocolAction[]",
              "name": "actions",
              "type": "tuple[]"
            },
            {
              "internalType": "uint256",
              "name": "nonce",
              "type": "uint256"
            },
            {
              "internalType": "bytes32",
              "name": "metadataHash",
              "type": "bytes32"
            }
          ],
          "internalType": "struct SafeTransaction",
          "name": "tx",
          "type": "tuple"
        },
        {
          "internalType": "uint256",
          "name": "executionType",
          "type": "uint256"
        },
        {
          "internalType": "bytes",
          "name": "executionMeta",
          "type": "bytes"
        }
      ],
      "name": "preCheck",
      "outputs": [
        {
          "internalType": "bytes",
          "name": "preCheckData",
          "type": "bytes"
        }
      ],
      "stateMutability": "nonpayable",
      "type": "function"
    },
    {
      "inputs": [
        {
          "internalType": "contract ISafe",
          "name": "safe",
          "type": "address"
        },
        {
          "components": [
            {
              "components": [
                {
                  "internalType": "address payable",
                  "name": "to",
                  "type": "address"
                },
                {
                  "internalType": "uint256",
                  "name": "value",
                  "type": "uint256"
                },
                {
                  "internalType": "bytes",
                  "name": "data",
                  "type": "bytes"
                }
              ],
              "internalType": "struct SafeProtocolAction",
              "name": "action",
              "type": "tuple"
            },
            {
              "internalType": "uint256",
              "name": "nonce",
              "type": "uint256"
            },
            {
              "internalType": "bytes32",
              "name": "metadataHash",
              "type": "bytes32"
            }
          ],
          "internalType": "struct SafeRootAccess",
          "name": "rootAccess",
          "type": "tuple"
        },
        {
          "internalType": "uint256",
          "name": "executionType",
          "type": "uint256"
        },
        {
          "internalType": "bytes",
          "name": "executionMeta",
          "type": "bytes"
        }
      ],
      "name": "preCheckRootAccess",
      "outputs": [
        {
          "internalType": "bytes",
          "name": "preCheckData",
          "type": "bytes"
        }
      ],
      "stateMutability": "nonpayable",
      "type": "function"
    },
    {
      "inputs": [
        {
          "internalType": "bytes4",
          "name": "interfaceId",
          "type": "bytes4"
        }
      ],
      "name": "supportsInterface",
      "outputs": [
        {
          "internalType": "bool",
          "name": "",
          "type": "bool"
        }
      ],
      "stateMutability": "pure",
      "type": "function"
    }
  ],
  "bytecode": {
    "object": "0x6080604052600080546001600160a01b0319908116734026ba244d773f17ffa2d3173dafe3fdf94216b91790915560018054909116739efbbcad12034bc310581b9837d545a951761f5a17905534801561005857600080fd5b5061042b806100686000396000f3fe608060405234801561001057600080fd5b506004361061004c5760003560e01c806301ffc9a714610051578063176ae7b71461007a5780637359b7421461009a578063f44d4ca3146100ad575b600080fd5b61006561005f366004610184565b50600190565b60405190151581526020015b60405180910390f35b61008d610088366004610232565b6100c2565b60405161007191906102b7565b61008d6100a8366004610232565b61010a565b6100c06100bb366004610305565b610141565b005b60607fba141d1e6792303b9e9126885cd31f5e91dc6b15836c7214f821b163a069cbf4338585856040516100f99493929190610396565b60405180910390a195945050505050565b60607f3256a4f1a2ba63603d140a241b17453003a8c7458eb8264328d35f440d5d392a338585856040516100f99493929190610396565b7f56fe939208d9884dede3b0a4f4168be3c4f445b3280bda9682397aaac12e06b23384848460405161017694939291906103c8565b60405180910390a150505050565b60006020828403121561019657600080fd5b81356001600160e01b0319811681146101ae57600080fd5b9392505050565b80356001600160a01b03811681146101cc57600080fd5b919050565b6000606082840312156101e357600080fd5b50919050565b60008083601f8401126101fb57600080fd5b50813567ffffffffffffffff81111561021357600080fd5b60208301915083602082850101111561022b57600080fd5b9250929050565b60008060008060006080868803121561024a57600080fd5b610253866101b5565b9450602086013567ffffffffffffffff8082111561027057600080fd5b61027c89838a016101d1565b955060408801359450606088013591508082111561029957600080fd5b506102a6888289016101e9565b969995985093965092949392505050565b600060208083528351808285015260005b818110156102e4578581018301518582016040015282016102c8565b506000604082860101526040601f19601f8301168501019250505092915050565b6000806000806060858703121561031b57600080fd5b610324856101b5565b93506020850135801515811461033957600080fd5b9250604085013567ffffffffffffffff81111561035557600080fd5b610361878288016101e9565b95989497509550505050565b81835281816020850137506000828201602090810191909152601f909101601f19169091010190565b60018060a01b03851681528360208201526060604082015260006103be60608301848661036d565b9695505050505050565b6001600160a01b038516815283151560208201526060604082018190526000906103be908301848661036d56fea26469706673582212208a0acc6f2e2dcdb733949e216ed4a79e8dc4e8c98707ee05a56e5111f324ae1064736f6c63430008140033",
    "linkReferences": {}
  },
  "methodIdentifiers": {
    "postCheck(address,bool,bytes)": "f44d4ca3",
    "preCheck(address,((address,uint256,bytes)[],uint256,bytes32),uint256,bytes)": "176ae7b7",
    "preCheckRootAccess(address,((address,uint256,bytes),uint256,bytes32),uint256,bytes)": "7359b742",
    "supportsInterface(bytes4)": "01ffc9a7"
  },
  "id": 6
}