{
  "abi": [
    {
      "inputs": [
        {
          "internalType": "address",
          "name": "hooksAddress",
          "type": "address"
        }
      ],
      "name": "AddressDoesNotImplementHooksInterface",
      "type": "error"
    },
    {
      "anonymous": false,
      "inputs": [
        {
          "indexed": true,
          "internalType": "address",
          "name": "safe",
          "type": "address"
        },
        {
          "indexed": true,
          "internalType": "address",
          "name": "hooksAddress",
          "type": "address"
        }
      ],
      "name": "HooksChanged",
      "type": "event"
    },
    {
      "inputs": [
        {
          "internalType": "address",
          "name": "",
          "type": "address"
        }
      ],
      "name": "enabledHooks",
      "outputs": [
        {
          "internalType": "address",
          "name": "",
          "type": "address"
        }
      ],
      "stateMutability": "view",
      "type": "function"
    },
    {
      "inputs": [
        {
          "internalType": "address",
          "name": "safe",
          "type": "address"
        }
      ],
      "name": "getEnabledHooks",
      "outputs": [
        {
          "internalType": "address",
          "name": "hooksAddress",
          "type": "address"
        }
      ],
      "stateMutability": "view",
      "type": "function"
    },
    {
      "inputs": [
        {
          "internalType": "address",
          "name": "hooks",
          "type": "address"
        }
      ],
      "name": "setHooks",
      "outputs": [],
      "stateMutability": "nonpayable",
      "type": "function"
    }
  ],
  "bytecode": {
    "object": "0x608060405234801561001057600080fd5b5061025c806100206000396000f3fe608060405234801561001057600080fd5b50600436106100415760003560e01c806380479c3414610046578063c703895c1461008b578063fb63daa1146100b7575b600080fd5b61006f6100543660046101d4565b6000602081905290815260409020546001600160a01b031681565b6040516001600160a01b03909116815260200160405180910390f35b61006f6100993660046101d4565b6001600160a01b039081166000908152602081905260409020541690565b6100ca6100c53660046101d4565b6100cc565b005b6001600160a01b0381161580159061015057506040516301ffc9a760e01b815263483f0e2b60e11b60048201526001600160a01b038216906301ffc9a790602401602060405180830381865afa15801561012a573d6000803e3d6000fd5b505050506040513d601f19601f8201168201806040525081019061014e9190610204565b155b1561017d57604051636b38fdb360e11b81526001600160a01b038216600482015260240160405180910390fd5b3360008181526020819052604080822080546001600160a01b0319166001600160a01b03861690811790915590519092917f4bdb0c6d693920823a574df92b20cb20886d27ac1e4e522e48f2e57bb668423b91a350565b6000602082840312156101e657600080fd5b81356001600160a01b03811681146101fd57600080fd5b9392505050565b60006020828403121561021657600080fd5b815180151581146101fd57600080fdfea2646970667358221220643f977707531a4cb9fead69117a3c29b116e028db1970675b41890e29ba9a0264736f6c63430008140033",
    "linkReferences": {}
  },
  "methodIdentifiers": {
    "enabledHooks(address)": "80479c34",
    "getEnabledHooks(address)": "c703895c",
    "setHooks(address)": "fb63daa1"
  },
  "id": 2
}