{
  "_format": "hh-sol-artifact-1",
  "contractName": "TestHook",
  "sourceName": "contracts/TestHook.sol",
  "abi": [
    {
      "anonymous": false,
      "inputs": [
        {
          "indexed": false,
          "internalType": "address",
          "name": "sender",
          "type": "address"
        },
        {
          "indexed": false,
          "internalType": "bool",
          "name": "success",
          "type": "bool"
        },
        {
          "indexed": false,
          "internalType": "bytes",
          "name": "preCheckData",
          "type": "bytes"
        }
      ],
      "name": "PostCheckCalled",
      "type": "event"
    },
    {
      "anonymous": false,
      "inputs": [
        {
          "indexed": false,
          "internalType": "address",
          "name": "sender",
          "type": "address"
        },
        {
          "indexed": false,
          "internalType": "uint256",
          "name": "executionType",
          "type": "uint256"
        },
        {
          "indexed": false,
          "internalType": "bytes",
          "name": "executionMeta",
          "type": "bytes"
        }
      ],
      "name": "PreCheckCalled",
      "type": "event"
    },
    {
      "anonymous": false,
      "inputs": [
        {
          "indexed": false,
          "internalType": "address",
          "name": "sender",
          "type": "address"
        },
        {
          "indexed": false,
          "internalType": "uint256",
          "name": "executionType",
          "type": "uint256"
        },
        {
          "indexed": false,
          "internalType": "bytes",
          "name": "executionMeta",
          "type": "bytes"
        }
      ],
      "name": "PreCheckRootAccessCalled",
      "type": "event"
    },
    {
      "inputs": [
        {
          "internalType": "contract ISafe",
          "name": "safe",
          "type": "address"
        },
        {
          "internalType": "bool",
          "name": "success",
          "type": "bool"
        },
        {
          "internalType": "bytes",
          "name": "preCheckData",
          "type": "bytes"
        }
      ],
      "name": "postCheck",
      "outputs": [],
      "stateMutability": "nonpayable",
      "type": "function"
    },
    {
      "inputs": [
        {
          "internalType": "contract ISafe",
          "name": "safe",
          "type": "address"
        },
        {
          "components": [
            {
              "components": [
                {
                  "internalType": "address payable",
                  "name": "to",
                  "type": "address"
                },
                {
                  "internalType": "uint256",
                  "name": "value",
                  "type": "uint256"
                },
                {
                  "internalType": "bytes",
                  "name": "data",
                  "type": "bytes"
                }
              ],
              "internalType": "struct SafeProtocolAction[]",
              "name": "actions",
              "type": "tuple[]"
            },
            {
              "internalType": "uint256",
              "name": "nonce",
              "type": "uint256"
            },
            {
              "internalType": "bytes32",
              "name": "metaHash",
              "type": "bytes32"
            }
          ],
          "internalType": "struct SafeTransaction",
          "name": "tx",
          "type": "tuple"
        },
        {
          "internalType": "uint256",
          "name": "executionType",
          "type": "uint256"
        },
        {
          "internalType": "bytes",
          "name": "executionMeta",
          "type": "bytes"
        }
      ],
      "name": "preCheck",
      "outputs": [
        {
          "internalType": "bytes",
          "name": "preCheckData",
          "type": "bytes"
        }
      ],
      "stateMutability": "nonpayable",
      "type": "function"
    },
    {
      "inputs": [
        {
          "internalType": "contract ISafe",
          "name": "safe",
          "type": "address"
        },
        {
          "components": [
            {
              "components": [
                {
                  "internalType": "address payable",
                  "name": "to",
                  "type": "address"
                },
                {
                  "internalType": "uint256",
                  "name": "value",
                  "type": "uint256"
                },
                {
                  "internalType": "bytes",
                  "name": "data",
                  "type": "bytes"
                }
              ],
              "internalType": "struct SafeProtocolAction",
              "name": "action",
              "type": "tuple"
            },
            {
              "internalType": "uint256",
              "name": "nonce",
              "type": "uint256"
            },
            {
              "internalType": "bytes32",
              "name": "metaHash",
              "type": "bytes32"
            }
          ],
          "internalType": "struct SafeRootAccess",
          "name": "rootAccess",
          "type": "tuple"
        },
        {
          "internalType": "uint256",
          "name": "executionType",
          "type": "uint256"
        },
        {
          "internalType": "bytes",
          "name": "executionMeta",
          "type": "bytes"
        }
      ],
      "name": "preCheckRootAccess",
      "outputs": [
        {
          "internalType": "bytes",
          "name": "preCheckData",
          "type": "bytes"
        }
      ],
      "stateMutability": "nonpayable",
      "type": "function"
    },
    {
      "inputs": [
        {
          "internalType": "bytes4",
          "name": "interfaceId",
          "type": "bytes4"
        }
      ],
      "name": "supportsInterface",
      "outputs": [
        {
          "internalType": "bool",
          "name": "",
          "type": "bool"
        }
      ],
      "stateMutability": "view",
      "type": "function"
    }
  ],
  "bytecode": "0x608060405234801561001057600080fd5b50610798806100206000396000f3fe608060405234801561001057600080fd5b506004361061004c5760003560e01c806301ffc9a714610051578063176ae7b7146100815780637359b742146100b1578063f44d4ca3146100e1575b600080fd5b61006b6004803603810190610066919061023d565b6100fd565b6040516100789190610285565b60405180910390f35b61009b600480360381019061009691906103cf565b610108565b6040516100a89190610503565b60405180910390f35b6100cb60048036038101906100c69190610544565b610150565b6040516100d89190610503565b60405180910390f35b6100fb60048036038101906100f69190610614565b610198565b005b600060019050919050565b60607fba141d1e6792303b9e9126885cd31f5e91dc6b15836c7214f821b163a069cbf43385858560405161013f94939291906106e2565b60405180910390a195945050505050565b60607f3256a4f1a2ba63603d140a241b17453003a8c7458eb8264328d35f440d5d392a3385858560405161018794939291906106e2565b60405180910390a195945050505050565b7f56fe939208d9884dede3b0a4f4168be3c4f445b3280bda9682397aaac12e06b2338484846040516101cd9493929190610722565b60405180910390a150505050565b600080fd5b600080fd5b60007fffffffff0000000000000000000000000000000000000000000000000000000082169050919050565b61021a816101e5565b811461022557600080fd5b50565b60008135905061023781610211565b92915050565b600060208284031215610253576102526101db565b5b600061026184828501610228565b91505092915050565b60008115159050919050565b61027f8161026a565b82525050565b600060208201905061029a6000830184610276565b92915050565b600073ffffffffffffffffffffffffffffffffffffffff82169050919050565b60006102cb826102a0565b9050919050565b60006102dd826102c0565b9050919050565b6102ed816102d2565b81146102f857600080fd5b50565b60008135905061030a816102e4565b92915050565b600080fd5b60006060828403121561032b5761032a610310565b5b81905092915050565b6000819050919050565b61034781610334565b811461035257600080fd5b50565b6000813590506103648161033e565b92915050565b600080fd5b600080fd5b600080fd5b60008083601f84011261038f5761038e61036a565b5b8235905067ffffffffffffffff8111156103ac576103ab61036f565b5b6020830191508360018202830111156103c8576103c7610374565b5b9250929050565b6000806000806000608086880312156103eb576103ea6101db565b5b60006103f9888289016102fb565b955050602086013567ffffffffffffffff81111561041a576104196101e0565b5b61042688828901610315565b945050604061043788828901610355565b935050606086013567ffffffffffffffff811115610458576104576101e0565b5b61046488828901610379565b92509250509295509295909350565b600081519050919050565b600082825260208201905092915050565b60005b838110156104ad578082015181840152602081019050610492565b60008484015250505050565b6000601f19601f8301169050919050565b60006104d582610473565b6104df818561047e565b93506104ef81856020860161048f565b6104f8816104b9565b840191505092915050565b6000602082019050818103600083015261051d81846104ca565b905092915050565b60006060828403121561053b5761053a610310565b5b81905092915050565b6000806000806000608086880312156105605761055f6101db565b5b600061056e888289016102fb565b955050602086013567ffffffffffffffff81111561058f5761058e6101e0565b5b61059b88828901610525565b94505060406105ac88828901610355565b935050606086013567ffffffffffffffff8111156105cd576105cc6101e0565b5b6105d988828901610379565b92509250509295509295909350565b6105f18161026a565b81146105fc57600080fd5b50565b60008135905061060e816105e8565b92915050565b6000806000806060858703121561062e5761062d6101db565b5b600061063c878288016102fb565b945050602061064d878288016105ff565b935050604085013567ffffffffffffffff81111561066e5761066d6101e0565b5b61067a87828801610379565b925092505092959194509250565b610691816102c0565b82525050565b6106a081610334565b82525050565b82818337600083830152505050565b60006106c1838561047e565b93506106ce8385846106a6565b6106d7836104b9565b840190509392505050565b60006060820190506106f76000830187610688565b6107046020830186610697565b81810360408301526107178184866106b5565b905095945050505050565b60006060820190506107376000830187610688565b6107446020830186610276565b81810360408301526107578184866106b5565b90509594505050505056fea2646970667358221220927463f30623ab2e620ab1f9acdc8c5ac39d1f2a51e65a1f01e66681bc6a0f4764736f6c63430008120033",
  "linkReferences": {},
  "deployedLinkReferences": {}
}